30224000379030545240107000001097711600000016465680000001262367240103                              3022400037900005072020000389                      PARACHUTE COCONUT LEMON CRM 140ML PARACHUTE COCONUT LEMON CRM 140ML  8901200200110010123530010000000600000000000600000007500000000004500001500000000000675000000000517501                         00000084000
30224000379030545240107000001097711600000016465680000001262367240103                              3022400037900012601820000035                      GLADE AF SPRAY LAVENDER 300ML     GLADE AF SPRAY LAVENDER 300ML      6281100870296010122960040000001200000000001200000010417000000012500401500000000001875100000001437551                         00000360000
30224000379030545240107000001097711600000016465680000001262367240103                              3022400037900012606520000121                      RAID COCKROACH&ANT KILL 400ML +PIPRAID COCKROACH&ANT KILL 400ML +PIPE6281100870135010122760040000002400000000002400000018126000000043502401500000000006525400000005002781                         00000960000
30224000379030545240107000001097711600000016465680000001262367240103                              3022400037900035323720000152                      MR MUSCLE GRIME DESTROYER 500ML   MR MUSCLE GRIME DESTROYER 500ML    6281100873778010123490040000001200000000001200000015500000000018600001500000000002790000000002139001                         00000600000
30224000379030545240107000001097711600000016465680000001262367240103                              3022400037900053279420000342                      MR MUSCLE APC LAVENDER 3L         MR MUSCLE APC LAVENDER 3L          6287019370308010122940050000003200000000000400000022500000000072000001500000000010800000000008280001                         00009600000
30224000379030545240107000001097711600000016465680000001262367240103                              3022400037900053279520000341                      MR MUSCLE APC LAVENDER 1L         MR MUSCLE APC LAVENDER 1L          6223001340201010122940050000002400000000001200000010000000000024000001500000000003600000000002760001                         00002400000
30224000379030545240107000001097711600000016465680000001262367240103                              3022400037900053279820000344                      MR MUSCLE APC CITRUS 3L           MR MUSCLE APC CITRUS 3L            6287019370285010122940050000003200000000000400000022500000000072000001500000000010800000000008280001                         00009600000
30224000379030545240107000001097711600000016465680000001262367240103                              3022400037900053280220000040                      GLADE AUTO REFIL LVDR&VANILLA 269MGLADE AUTO REFIL LVDR&VANILLA 269ML8690784817110010122960050000000600000000000600000031000000000018600001500000000002790000000002139001                         00000161400
30224000379030545240107000001097711600000016465680000001262367240103                              3022400037900053280320000041                      GLADE SPRAY REFILL CLEAN LINEN 269GLADE SPRAY REFILL CLEAN LINEN 269M8690784816885010122960050000000600000000000600000031000000000018600001500000000002790000000002139001                         00000161400
30224000379030545240107000001097711600000016465680000001262367240103                              3022400037900053280420000026                      GLADE AUTO REFIL APPLE CINMON 269MGLADE AUTO REFIL APPLE CINMON 269ML8690784816779010122960050000000600000000000600000031000000000018600001500000000002790000000002139001                         00000161400
30224000379030545240107000001097711600000016465680000001262367240103                              3022400037900053280520000030                      GLADE AUTO REFIL HAWAIIAN 269ML   GLADE AUTO REFIL HAWAIIAN 269ML    8690784816991010122960050000000600000000000600000031000000000018600001500000000002790000000002139001                         00000161400
30224000379030545240107000001097711600000016465680000001262367240103                              3022400037900053280720000024                      GLADE SPRAY REFILL OCEAN ESC. 269MGLADE SPRAY REFILL OCEAN ESC. 269ML8690784316880010122960050000000600000000000600000031000000000018600001500000000002790000000002139001                         00000161400
30224000379030545240107000001097711600000016465680000001262367240103                              3022400037900054558620000031                      GLADE AUTO REFIL CASHMER WOOD 269MGLADE AUTO REFIL CASHMER WOOD 269ML8690784317115010122960050000000600000000000600000031000000000018600001500000000002790000000002139001                         00000161400
30224000379030545240107000001097711600000016465680000001262367240103                              3022400037900054559320000012                      GLADE AUTO KIT LAVENDER&VNL 269ML GLADE AUTO KIT LAVENDER&VNL 269ML  6281100875093010122960050000000400000000000400000050500000000020200001500000000003030000000002323001                         00000107600
30224000379030545240107000001097711600000016465680000001262367240103                              3022400037900054559520000008                      GLADE AUTOMATIC 3IN1 OCEAN ESCAPE GLADE AUTOMATIC 3IN1 OCEAN ESCAPE  6281100875116010122960050000000400000000000400000050500000000020200001500000000003030000000002323001                         00000400000
30224000379030545240107000001097711600000016465680000001262367240103                              3022400037900056463540000034                      WINDEX GLASS CLNR 750ML X2        WINDEX GLASS CLNR 750ML X2         6281100873549010122760090000002700000000000900000015000000000040500001500000000006075000000004657501                         00002025000
30224000379030545240107000001097711600000016465680000001262367240103                              3022400037900057048040000030                      GLADE AF SPRAY JSMN 300ML X2 +1FLRGLADE AF SPRAY JSMN 300ML X2 +1FLR 6281100879732010122960040000001600000000001600000020830000000033328001500000000004999200000003832721                         00000480000
30224000379030545240107000001097711600000016465680000001262367240103                              3022400037900057048140000029                      GLADE AF SPRAY ROSE300X2 +1OCEAN FGLADE AF SPRAY ROSE300X2 +1OCEAN FR6281100879718010122960040000001600000000001600000020830000000033328001500000000004999200000003832721                         00001600000
30224000379030545240107000001097711600000016465680000001262367240103                              3022400037900058330420000025                      GLADE AUTO REFIL MORNG FRESH 269MLGLADE AUTO REFIL MORNG FRESH 269ML 6223001343561010122960050000000600000000000600000031000000000018600001500000000002790000000002139001                         00000161400
30224000379030545240107000001097711600000016465680000001262367240103                              3022400037900058708140000032                      PLEDGE FURN POLISH 300ML X2 +1    PLEDGE FURN POLISH 300ML X2 +1     6281100871286010122760020000003200000000001600000027000000000086400001500000000012960000000009936001                         00000960000
30224000379030545240107000001097711600000016465680000001262367240103                              3022400037900058836720000432                      PARACHUTE MEN ANTIDANDRF CRM 140MLPARACHUTE MEN ANTIDANDRF CRM 140ML 8901088074438010123530010000000600000000000600000007500000000004500001500000000000675000000000517501                         00000084000
30224000379030545240107000001097711600000016465680000001262367240103                              3022400037900058837020000434                      PARACHUTE MEN CREAM 210ML GREEN   PARACHUTE MEN CREAM 210ML GREEN    8901088078634010123530010000002400000000002400000009292000000022300801500000000003345100000002564591                         00000504000
30224000379030545240107000001097711600000016465680000001262367240103                              3022400037900058837220000419                      PARACHUTE SAMPOORNA HAIR OIL 300MLPARACHUTE SAMPOORNA HAIR OIL 300ML 8901088200349010123530020000002400000000002400000011500000000027600001500000000004140000000003174001                         00000720000
30224000379030545240107000001097711600000016465680000001262367240103                              3022400037900060813720000401                      PARACHUTE FLORA JSMN CCNT OIL 300XPARACHUTE FLORA JSMN CCNT OIL 300X28901088046404010123530020000001200000000001200000013500000000016200001500000000002430000000001863001                         00001200000
30224000379030545240107000001097711600000016465680000001262367240103                              3022400037900061188420000037                      GLADE AF SPRAY AMBER&OUD 300ML    GLADE AF SPRAY AMBER&OUD 300ML     6223001346975010122960040000001200000000001200000010417000000012500401500000000001875100000001437551                         00000360000
30224000379030545240107000001097711600000016465680000001262367240103                              3022400037900061188620000051                      MR.MUSCLE BLOCK INTANK MARIN 50G XMR.MUSCLE BLOCK INTANK MARIN 50G X25000204004786010123500060000001200000000001200000011670000000014004001500000000002100600000001610461                         00000060000
30224000379030545240107000001097711600000016465680000001262367240103                              3022400037900061189120000020                      GLADE AUTO REFIL PEONY&CHERRY 269MGLADE AUTO REFIL PEONY&CHERRY 269ML6223001346951010122960050000000600000000000600000031000000000018600001500000000002790000000002139001                         00000161400
30224000379030545240107000001097711600000016465680000001262367240103                              3022400037900061189220000056                      GLADE AUTO REFIL SHEER VANILA 269MGLADE AUTO REFIL SHEER VANILA 269ML6223001346784010122960050000000600000000000600000031000000000018600001500000000002790000000002139001                         00000161400
30224000379030545240107000001097711600000016465680000001262367240103                              3022400037900061189320000042                      GLADE AUTO REFIL AMBER&OUD 269ML  GLADE AUTO REFIL AMBER&OUD 269ML   6223001346999010122960050000000600000000000600000031000000000018600001500000000002790000000002139001                         00000161400
30224000379030545240107000001097711600000016465680000001262367240103                              3022400037900061189420000007                      GLADE AUTO KIT+REFILL PEONY&CHERRYGLADE AUTO KIT+REFILL PEONY&CHERRY 6223001346944010122960050000000400000000000400000050500000000020200001500000000003030000000002323001                         00000400000
30224000379030545240107000001097711600000016465680000001262367240103                              3022400037900061189520000022                      GLADE AUTO KIT+REFILL SHEER VANILLGLADE AUTO KIT+REFILL SHEER VANILLA6223001346777010122960050000000400000000000400000050500000000020200001500000000003030000000002323001                         00000400000
30224000379030545240107000001097711600000016465680000001262367240103                              3022400037900061189620000013                      GLADE AUTO KIT+REFL AMBER&OUD 269MGLADE AUTO KIT+REFL AMBER&OUD 269ML6223001346982010122960050000000400000000000400000050500000000020200001500000000003030000000002323001                         00000400000
30224000379030545240107000001097711600000016465680000001262367240103                              3022400037900061506440000024                      GLADE AF SPRAY LVDR 300G X2 +1AMBEGLADE AF SPRAY LVDR 300G X2 +1AMBER5000204066210010122960040000001600000000001600000020830000000033328001500000000004999200000003832721                         00001600000
30224000379030545240107000001097711600000016465680000001262367240103                              3022400037900062621520000381                      PARACHUTE OIL ALOE COCONT 150ML   PARACHUTE OIL ALOE COCONT 150ML    8901088080279010123530020000000600000000000600000007208000000004324801500000000000648700000000497351                         00000090000
30224000379030545240107000001097711600000016465680000001262367240103                              3022400037900062764240000033                      PLEDGE FURN POLISH ORNG 300 X2 ?20PLEDGE FURN POLISH ORNG 300 X2 ?20%6287019370032010122760020000002400000000002400000021600000000051840001500000000007776000000005961601                         00002400000
30224000379030545240107000001097711600000016465680000001262367240103                              3022400037900062764340000035                      BAYGON ROACH ANT KILL 400ML X2 ?15BAYGON ROACH ANT KILL 400ML X2 ?15%6287019370018010122760040000002400000000001200000025857000000062056801500000000009308500000007136531                         00000960000
30224000379030545240107000001097711600000016465680000001262367240103                              3022400037900066456920000171                      BAYGON POWDR ROACH&ANTS KILLER 250BAYGON POWDR ROACH&ANTS KILLER 250G5000204067989010122760040000002400000000002400000011960000000028704001500000000004305600000003300961                         00000600000
30224000379030545240107000001097711600000016465680000001262367240103                              3022400037900066457120000206                      MR.MUSCLE DISINFECT CLEAN 500ML   MR.MUSCLE DISINFECT CLEAN 500ML    6223001340669010123490040000001200000000001200000015500000000018600001500000000002790000000002139001                         00000600000
30224000379030545240107000001097711600000016465680000001262367240103                              3022400037900067123940000181                      GLADE AF LAVN&VANL 269ML X2 35%OFFGLADE AF LAVN&VANL 269ML X2 35%OFF 6287019370247010122960050000000300000000000300000040300000000012090001500000000001813500000001390351                         00000080700
30224000379030545240107000001097711600000016465680000001262367240103                              3022400037900068920820000331                      GLADE SCENTED GEL LEMON 180G      GLADE SCENTED GEL LEMON 180G       5000204134933010122960110000000800000000000800000012000000000009600001500000000001440000000001104001                         00000144000
30224000379030545240107000001097711600000016465680000001262367240103                              3022400037900069835720000193                      GLADE SCNTD GEL PEONY 70G         GLADE SCNTD GEL PEONY 70G          5000204090901010122960110000001200000000001200000008335000000010002001500000000001500300000001150231                         00000000000
30224000379030545240107000001097711600000016465680000001262367240103                              3022400037900069835820000192                      GLADE SCNTD GEL AQUA 70G          GLADE SCNTD GEL AQUA 70G           5000204928167010122960110000001200000000001200000008335000000010002001500000000001500300000001150231                         00000000000
30224000379030545240107000001097711600000016465680000001262367240103                              3022400037900071986220000482                      RAID MOSQUITO & FLY PRO 300ML     RAID MOSQUITO & FLY PRO 300ML      6287019370926010122760040000002400000000002400000013500000000032400001500000000004860000000003726001                         00000720000
